S01700004763634170706C69636174696F6E312E737265635B
S11300000C942A000C94C8030C94EF030C9416046B
S11300100C943C000C943C000C943C000C943C006C
S11300200C943C000C943C000C943C000C943C005C
S11300300C943C000C943C000C943C000C943C004C
S11300400C943C000C943C000C943C000C943C003C
S11300500C943C0011241FBECFE5D8E0DEBFCDBF19
S113006020E0A0E6B0E001C01D92A736B207E1F798
S11300700E942F020C9444070C94000060E081E479
S11300800E94E20161E081E40E94E20162E081E415
S11300900E94E20160E082E40E94E20161E082E405
S11300A00E94E20162E082E40E94E20162E084E4F0
S11300B00E94EE0141EA51E063E080E00E94C60143
S11300C080E00E94AF01089561E081E40E94EA01AA
S11300D062E081E40E94EA0160E081E40E94EA01B6
S11300E061E082E40E94EA0160E082E40E94EA01A5
S11300F062E082E40E94EA0108950E94640061E0E3
S113010081E40E94E60140E050E060E87FE380E0A3
S113011094E00E94F20161E081E40E94EA0140E07F
S113012050E060E87FE380E094E00E94F20161E047
S113013081E40E94E60140E050E060E87FE380E073
S113014094E00E94F20161E081E40E94EA0140E04F
S113015050E060E87FE380E094E00E94F20161E017
S113016081E40E94E60140E050E060E87FE380E043
S113017094E00E94F20161E081E40E94EA0160E0FF
S113018081E40E94E60140E050E060EA70E480E02F
S113019094E00E94F20160E081E40E94EA0161E0DF
S11301A081E40E94E60140E050E060E87FE380E003
S11301B094E00E94F20161E081E40E94EA0140E0DF
S11301C050E060E87FE380E094E00E94F20161E0A7
S11301D081E40E94E60140E050E060E87FE380E0D3
S11301E094E00E94F20161E081E40E94EA0140E0AF
S11301F050E060E87FE380E094E00E94F20161E077
S113020081E40E94E60140E050E060E87FE380E0A2
S113021094E00E94F20161E081E40E94EA0162E05C
S113022081E40E94E60140E050E060EA70E480E08E
S113023094E00E94F20161CF80916600882319F056
S11302408130A1F008950E94640062E081E40E947C
S1130250E60160E082E40E94E60140E050E060EAEA
S113026070E480E094E00E94F20108950E9464002A
S113027061E081E40E94E60161E082E40E94E6011B
S113028040E050E060E87FE380E094E00E94F20107
S113029061E081E40E94EA0161E082E40E94EA01F3
S11302A040E050E060E87FE380E094E00E94F201E7
S11302B061E081E40E94E60161E082E40E94E601DB
S11302C040E050E060E87FE380E094E00E94F201C7
S11302D061E081E40E94EA0161E082E40E94EA01B3
S11302E040E050E060E87FE380E094E00E94F201A7
S11302F061E081E40E94E60161E082E40E94E6019B
S113030040E050E060E87FE380E094E00E94F20186
S113031061E081E40E94EA0161E082E40E94EA0172
S113032062E081E40E94E60160E082E40E94E6016A
S113033040E050E060EA70E480E094E00E94F20162
S113034008958BB38770843019F41092660003C04B
S113035081E0809366000E941C010C9400008130AF
S113036049F018F0823059F00FC08BB780648BBF0E
S113037081E008958BB780688BBF81E008958BB7C7
S113038080628BBF81E0089580E008950F931F93EE
S1130390CF93DF93C82F8A010E944003D82F78940B
S11303A0B8018C2F0E94AE03D81304C0D13021F0C1
S11303B080E003C080E001C081E0DF91CF911F9114
S11303C00F91089540E00E943602089541E00E9492
S11303D0BB02089540E00E94BB02089541E00E94E0
S11303E036020895CF92DF92EF92FF920F931F93FC
S11303F0CF93DF938C016A017B010E943D04B80115
S113040080E090E00E94FD05A70196010E94A204ED
S1130410EC01C8010E944A04882319F0813071F06C
S113042012C00E94950480E011C008B600FEFDCF02
S113043088B78D7F88BF2F5F3F4F02C020E030E038
S1130440C217D30790F70E94950481E0DF91CF9102
S11304501F910F91FF90EF90DF90CF9008950E942D
S11304603E000E947D0080E090E00895442319F04E
S11304704130E1F17AC08234A9F018F4813431F0CA
S113048076C08334D9F0843429F171C02AB381E071
S113049090E002C0880F991F6A95E2F7822B8ABB0D
S11304A081E0089527B381E090E002C0880F991F8E
S11304B06A95E2F7822B87BB81E0089524B381E03B
S11304C090E002C0880F991F6A95E2F7822B84BBE3
S11304D081E0089521B381E090E002C0880F991F64
S11304E06A95E2F7822B81BB81E008958234B1F0F2
S11304F018F4813431F03DC08334E9F0843441F19F
S113050038C02AB381E090E002C0880F991F6A9531
S1130510E2F7809582238ABB81E0089527B381E0C6
S113052090E002C0880F991F6A95E2F780958223B4
S113053087BB81E0089524B381E090E002C0880F76
S1130540991F6A95E2F78095822384BB81E0089520
S113055021B381E090E002C0880F991F6A95E2F709
S11305608095822381BB81E0089580E0089580E036
S1130570089580E008954423F1F1413009F07AC0F0
S11305808234A9F018F4813431F076C08334D9F080
S1130590843429F171C02BB381E090E002C0880F4C
S11305A0991F6A95E2F7822B8BBB81E0089528B3EB
S11305B081E090E002C0880F991F6A95E2F7822BD0
S11305C088BB81E0089525B381E090E002C0880FE4
S11305D0991F6A95E2F7822B85BB81E0089522B3C7
S11305E081E090E002C0880F991F6A95E2F7822BA0
S11305F082BB81E008958234B1F018F4813431F083
S11306003DC08334E9F0843441F138C02BB381E038
S113061090E002C0880F991F6A95E2F780958223C3
S11306208BBB81E0089528B381E090E002C0880F7D
S1130630991F6A95E2F78095822388BB81E008952B
S113064025B381E090E002C0880F991F6A95E2F714
S11306508095822385BB81E0089522B381E090E0F8
S113066002C0880F991F6A95E2F78095822382BBA6
S113067081E0089580E0089580E0089580E0089581
S1130680813069F120F0823009F451C05FC06130DB
S113069071F028F0623099F06330C9F059C085B721
S11306A08E7F85BF85B78D7F85BF81E0089585B72F
S11306B0816085BF85B78D7F85BF81E0089585B74B
S11306C08E7F85BF85B7826085BF81E0089585B739
S11306D0816085BF85B7826085BF81E00895613000
S11306E071F028F0623099F06330C9F033C085B7F7
S11306F08B7F85BF85B7877F85BF81E0089585B7E8
S1130700846085BF85B7877F85BF81E0089585B7FD
S11307108B7F85BF85B7886085BF81E0089585B7E5
S1130720846085BF85B7886085BF81E008956230A5
S113073019F0633031F010C084B78F7B84BF81E03F
S1130740089584B7806484BF81E0089580E00895AB
S113075080E0089580E0089580E00895813051F0AC
S113076018F0823069F012C07093650060936400E1
S113077081E00895709363006093620081E00895BE
S1130780709361006093600081E0089580E00895B3
S11307901F920F920FB60F9211242F933F934F93F2
S11307A05F936F937F938F939F93AF93BF93EF93D5
S11307B0FF93E0916400F09165000995FF91EF913A
S11307C0BF91AF919F918F917F916F915F914F9165
S11307D03F912F910F900FBE0F901F9018951F926D
S11307E00F920FB60F9211242F933F934F935F9361
S11307F06F937F938F939F93AF93BF93EF93FF93E5
S1130800E0916200F09163000995FF91EF91BF912F
S1130810AF919F918F917F916F915F914F913F9194
S11308202F910F900FBE0F901F9018951F920F924B
S11308300FB60F9211242F933F934F935F936F93AF
S11308407F938F939F93AF93BF93EF93FF93E09125
S11308506000F09161000995FF91EF91BF91AF9114
S11308609F918F917F916F915F914F913F912F91C4
S11308700F900FBE0F901F90189583B78E7F83BF84
S113088083B78D7F83BF83B78B7F83BF88B78D7F0B
S113089088BF08958034910529F130F481309105A1
S11308A059F00897A1F03FC0811521E0920729F182
S11308B08115944069F137C083B7816083BF83B7E2
S11308C08D7F83BF83B78B7F83BF81E0089583B718
S11308D08E7F83BF83B7826083BF83B78B7F83BFE1
S11308E081E0089583B7816083BF83B7826083BF4B
S11308F083B78B7F83BF81E0089583B78E7F83BFE7
S113090083B78D7F83BF83B7846083BF81E00895FD
S113091083B7816083BF83B78D7F83BF83B78460D0
S113092083BF81E0089580E0089583B78E7F83BFFD
S113093083B78D7F83BF83B78B7F83BF88B78D7F5A
S113094088BF08954F925F926F927F928F929F9289
S1130950AF92BF92CF92DF92EF92FF9249015A0178
S113096020E034E244E759E40E945C052B013C0199
S113097020E030E040E853E40E948B069B01AC0188
S1130980C501B4010E945C050E94F8066B017C015C
S1130990A3019201C501B4010E945C05A70196015F
S11309A00E945C059B01AC0160E070E080E893E488
S11309B00E94EF040E94CE0562BFC701B6010E94E7
S11309C0CE05CB01FF90EF90DF90CF90BF90AF901A
S11309D09F908F907F906F905F904F9008955058A4
S11309E0BB27AA270E9407050C9451060E944306C0
S11309F038F00E944A0620F039F49F3F19F426F497
S1130A000C9440060EF4E095E7FB0C943A06E92FAB
S1130A100E94620658F3BA176207730784079507A2
S1130A2020F079F4A6F50C9484060EF4E0950B2ED0
S1130A30BA2FA02D0B01B90190010C01CA01A0012C
S1130A401124FF27591B99F0593F50F4503E68F187
S1130A501A16F040A22F232F342F4427585FF3CFC8
S1130A60469537952795A795F0405395C9F77EF499
S1130A701F16BA0B620B730B840BBAF09150A1F0E2
S1130A80FF0FBB1F661F771F881FC2F70EC0BA0F68
S1130A90621F731F841F48F4879577956795B795F0
S1130AA0F7959E3F08F0B0CF9395880F08F09927EB
S1130AB0EE0F9795879508950E9470050C94510642
S1130AC00E944A0658F00E94430640F029F45F3F12
S1130AD029F00C943A0651110C9485060C944006A6
S1130AE00E94620668F39923B1F3552391F3951B91
S1130AF0550BBB27AA2762177307840738F09F5F3B
S1130B005F4F220F331F441FAA1FA9F335D00E2EA7
S1130B103AF0E0E832D091505040E695001CCAF714
S1130B202BD0FE2F29D0660F771F881FBB1F2617D7
S1130B3037074807AB07B0E809F0BB0B802DBF01AE
S1130B40FF2793585F4F3AF09E3F510578F00C947D
S1130B503A060C9485065F3FE4F3983ED4F38695F9
S1130B6077956795B795F7959F5FC9F7880F911D9E
S1130B709695879597F90895E1E0660F771F881F8A
S1130B80BB1F621773078407BA0720F0621B730B3D
S1130B90840BBA0BEE1F88F7E09508950E946A064D
S1130BA088F09F5798F0B92F9927B751B0F0E1F02A
S1130BB0660F771F881F991F1AF0BA95C9F714C0DA
S1130BC0B13091F00E948406B1E008950C9484063B
S1130BD0672F782F8827B85F39F0B93FCCF3869513
S1130BE077956795B395D9F73EF490958095709570
S1130BF061957F4F8F4F9F4F0895E89409C097FBED
S1130C003EF490958095709561957F4F8F4F9F4FDF
S1130C109923A9F0F92F96E9BB279395F695879523
S1130C2077956795B795F111F8CFFAF4BB0F11F4E6
S1130C3060FF1BC06F5F7F4F8F4F9F4F16C088238D
S1130C4011F096E911C0772321F09EE8872F762FC3
S1130C5005C0662371F096E8862F70E060E02AF004
S1130C609A95660F771F881FDAF7880F96958795F0
S1130C7097F9089597F99F6780E870E060E0089518
S1130C809FEF80EC089500240A94161617061806A0
S1130C900906089500240A9412161306140605067C
S1130CA00895092E0394000C11F4882352F0BB0F0D
S1130CB040F4BF2B11F460FF04C06F5F7F4F8F4F70
S1130CC09F4F089557FD9058440F551F59F05F3FAB
S1130CD071F04795880F97FB991F61F09F3F79F05A
S1130CE087950895121613061406551FF2CF4695DC
S1130CF0F1DF08C0161617061806991FF1CF86955E
S1130D007105610508940895E894BB276627772741
S1130D10CB0197F908950E949E060C9451060E94F7
S1130D20430638F00E944A0620F0952311F00C94F3
S1130D303A060C94400611240C9485060E9462061F
S1130D4070F3959FC1F3950F50E0551F629FF0011A
S1130D50729FBB27F00DB11D639FAA27F00DB11D33
S1130D60AA1F649F6627B00DA11D661F829F2227BC
S1130D70B00DA11D621F739FB00DA11D621F839F43
S1130D80A00D611D221F749F3327A00D611D231F19
S1130D90849F600D211D822F762F6A2F11249F5767
S1130DA050409AF0F1F088234AF0EE0FFF1FBB1F6A
S1130DB0661F771F881F91505040A9F79E3F510529
S1130DC080F00C943A060C9485065F3FE4F3983E59
S1130DD0D4F3869577956795B795F795E7959F5FD3
S1130DE0C1F7FE2B880F911D9695879597F9089565
S1130DF00E942C0730F09F3710F40C9485060C9455
S1130E0003070C941E07882371F4772321F098506C
S1130E10872B762F07C0662311F499270DC09051B4
S1130E20862B70E060E02AF09A95660F771F881F82
S1130E30DAF7880F9695879597F908959F3F31F0D3
S1130E40915020F4879577956795B795880F911DF4
S1130E509695879597F908950E946A06A0F0BEE7D3
S1130E60B91788F4BB279F3860F41616B11D672F95
S1130E70782F8827985FF7CF869577956795B11D6A
S10F0E8093959639C8F30895F894FFCFB9
S9030000FC
